S019000054696D65725F315F50574D5F4D6F746F722E73726563B7
S11300000C946A000C947C000C947C000C947C008E
S11300100C947C000C947C000C947C000C947C006C
S11300200C947C000C947C000C947C000C947C005C
S11300300C947C000C947C000C947C000C947C004C
S11300400C947C000C947C000C947C000C947C003C
S11300500C947C009B00B200C900E000F7000E0184
S113006025013C0153016A0181019801AF01C601D8
S1130070DD01F4010B0222023902500267027E0202
S11300809502AC02C302DA02F10208031F0336032D
S11300904D0364039F03B603CD03E403FB0312047F
S11300A02904400457046E0485049C04B304CA0460
S11300B0E104F8040F0526053D0554056B0582058A
S11300C09905B005C705DE05F5050C0623063A06B5
S11300D05106680611241FBECFE5D8E0DEBFCDBFB0
S11300E020E0A0E6B0E001C01D92A436B207E1F71B
S11300F00E9486060C944B070C940000CF93DF9368
S113010000D0CDB7DEB789836A838981882F90E0D8
S1130110092E000CAA0BBB0B40E050E02FE130E0AD
S1130120841B950B2817390708F4E5C2865D9F4F99
S1130130FC010C9445078A81882351F48BE390E0F9
S11301402BE330E0F90120812E7FFC012083D4C20F
S11301508BE390E02BE330E0F90120812160FC0186
S11301602083CAC28A81882351F48BE390E02BE375
S113017030E0F90120812D7FFC012083BDC28BE397
S113018090E02BE330E0F90120812260FC01208320
S1130190B3C28A81882351F48BE390E02BE330E0EF
S11301A0F90120812B7FFC012083A6C28BE390E020
S11301B02BE330E0F90120812460FC0120839CC200
S11301C08A81882351F48BE390E02BE330E0F9013A
S11301D02081277FFC0120838FC28BE390E02BE3F7
S11301E030E0F90120812860FC01208385C28A81E6
S11301F0882351F48BE390E02BE330E0F901208174
S11302002F7EFC01208378C28BE390E02BE330E067
S1130210F90120812061FC0120836EC28A81882338
S113022051F48BE390E02BE330E0F90120812F7D42
S1130230FC01208361C28BE390E02BE330E0F90101
S113024020812062FC01208357C28A81882351F4D3
S11302508BE390E02BE330E0F90120812F7BFC015C
S113026020834AC28BE390E02BE330E0F901208144
S11302702064FC01208340C28A81882351F48BE3EB
S113028090E02BE330E0F90120812F77FC012083FB
S113029033C28BE390E02BE330E0F9012081206846
S11302A0FC01208329C28A81882351F488E390E0E9
S11302B028E330E0F90120812E7FFC0120831CC259
S11302C088E390E028E330E0F90120812160FC011B
S11302D0208312C28A81882351F488E390E028E3C2
S11302E030E0F90120812D7FFC01208305C288E3E1
S11302F090E028E330E0F90120812260FC012083B2
S1130300FBC18A81882351F488E390E028E330E03C
S1130310F90120812B7FFC012083EEC188E390E06A
S113032028E330E0F90120812460FC012083E4C14A
S11303308A81882351F488E390E028E330E0F901CE
S11303402081277FFC012083D7C188E390E028E344
S113035030E0F90120812860FC012083CDC18A812D
S1130360882351F488E390E028E330E0F901208108
S11303702F7EFC012083C0C188E390E028E330E0B5
S1130380F90120812061FC012083B6C18A81882380
S113039051F488E390E028E330E0F90120812F7DD7
S11303A0FC012083A9C188E390E028E330E0F9014F
S11303B020812062FC0120839FC18A81882351F41B
S11303C088E390E028E330E0F90120812F7BFC01F1
S11303D0208392C188E390E028E330E0F901208192
S11303E02064FC01208388C18A81882351F488E336
S11303F090E028E330E0F90120812F77FC0120838D
S11304007BC188E390E028E330E0F9012081206893
S1130410FC01208371C18A81882351F485E390E033
S113042025E330E0F90120812E7FFC01208364C1A3
S113043085E390E025E330E0F90120812160FC01AF
S113044020835AC18A81882351F485E390E025E30F
S113045030E0F90120812D7FFC0120834DC185E32B
S113046090E025E330E0F90120812260FC01208343
S113047043C18A81882351F485E390E025E330E089
S1130480F90120812B7FFC01208336C185E390E0B4
S113049025E330E0F90120812460FC0120832CC194
S11304A08A81882351F485E390E025E330E0F90163
S11304B02081277FFC0120831FC185E390E025E391
S11304C030E0F90120812860FC01208315C18A8174
S11304D0882351F485E390E025E330E0F90120819D
S11304E02F7EFC01208308C185E390E025E330E002
S11304F0F90120812061FC012083FEC08A818823C8
S113050051F485E390E025E330E0F90120812F7D6B
S1130510FC012083F1C085E390E025E330E0F9019C
S113052020812062FC012083E7C08A81882351F462
S113053085E390E025E330E0F90120812F7BFC0185
S11305402083DAC085E390E025E330E0F9012081DF
S11305502064FC012083D0C08A81882351F485E380
S113056090E025E330E0F90120812F77FC0120831E
S1130570C3C085E390E025E330E0F90120812068E1
S1130580FC012083B9C08A81882351F482E390E07E
S113059022E330E0F90120812E7FFC012083ACC0EE
S11305A082E390E022E330E0F90120812160FC0144
S11305B02083A2C08A81882351F482E390E022E35D
S11305C030E0F90120812D7FFC01208395C082E376
S11305D090E022E330E0F90120812260FC012083D5
S11305E08BC08A81882351F482E390E022E330E0D7
S11305F0F90120812B7FFC0120837EC082E390E0FF
S113060022E330E0F90120812460FC01208374C0DE
S11306108A81882351F482E390E022E330E0F901F7
S11306202081277FFC01208367C082E390E022E3DE
S113063030E0F90120812860FC0120835DC08A81BB
S1130640882351F482E390E022E330E0F901208131
S11306502F7EFC01208350C082E390E022E330E04F
S1130660F90120812061FC01208346C08A8188230E
S113067051F482E390E022E330E0F90120812F7D00
S1130680FC01208339C082E390E022E330E0F901E9
S113069020812062FC0120832FC08A81882351F4A9
S11306A082E390E022E330E0F90120812F7BFC011A
S11306B0208322C082E390E022E330E0F90120812C
S11306C02064FC01208318C08A81882351F482E3CA
S11306D090E022E330E0F90120812F77FC012083B0
S11306E00BC082E390E022E330E0F901208120682E
S11306F0FC01208301C0000000000F900F90DF91E7
S1130700CF910895CF93DF9300D0CDB7DEB789831F
S11307106A838981882F90E0092E000CAA0BBB0BF9
S113072040E050E02FE130E0841B950B2817390797
S113073008F4E5C2865B9F4FFC010C9445078A814F
S1130740813051F48AE390E02AE330E0F90120811A
S11307502E7FFC012083D4C28AE390E02AE330E0B8
S1130760F90120812160FC012083CAC28A81813081
S113077051F48AE390E02AE330E0F90120812D7FEF
S1130780FC012083BDC28AE390E02AE330E0F90152
S113079020812260FC012083B3C28A81813051F41C
S11307A08AE390E02AE330E0F90120812B7FFC0109
S11307B02083A6C28AE390E02AE330E0F901208195
S11307C02460FC0120839CC28A81813051F48AE335
S11307D090E02AE330E0F9012081277FFC012083A7
S11307E08FC28AE390E02AE330E0F9012081286097
S11307F0FC01208385C28A81813051F48AE390E030
S11308002AE330E0F90120812F7EFC01208378C2A5
S11308108AE390E02AE330E0F90120812061FC01C1
S113082020836EC28A81813051F48AE390E02AE306
S113083030E0F90120812F7DFC01208361C28AE32D
S113084090E02AE330E0F90120812062FC0120835A
S113085057C28A81813051F48AE390E02AE330E080
S1130860F90120812F7BFC0120834AC28AE390E0B6
S11308702AE330E0F90120812064FC01208340C296
S11308808A81813051F48AE390E02AE330E0F9016F
S113089020812F77FC01208333C28AE390E02AE38E
S11308A030E0F90120812068FC01208329C28A817B
S11308B0813051F487E390E027E330E0F9012081AF
S11308C02E7FFC0120831CC287E390E027E330E005
S11308D0F90120812160FC01208312C28A818130C8
S11308E051F487E390E027E330E0F90120812D7F84
S11308F0FC01208305C287E390E027E330E0F9019F
S113090020812260FC012083FBC18A81813051F463
S113091087E390E027E330E0F90120812B7FFC019D
S11309202083EEC187E390E027E330E0F9012081E2
S11309302460FC012083E4C18A81813051F487E37F
S113094090E027E330E0F9012081277FFC01208338
S1130950D7C187E390E027E330E0F90120812860E4
S1130960FC012083CDC18A81813051F487E390E07A
S113097027E330E0F90120812F7EFC012083C0C1F0
S113098087E390E027E330E0F90120812061FC0156
S11309902083B6C18A81813051F487E390E027E354
S11309A030E0F90120812F7DFC012083A9C187E378
S11309B090E027E330E0F90120812062FC012083EC
S11309C09FC18A81813051F487E390E027E330E0CE
S11309D0F90120812F7BFC01208392C187E390E001
S11309E027E330E0F90120812064FC01208388C1E1
S11309F08A81813051F487E390E027E330E0F90104
S1130A0020812F77FC0120837BC187E390E027E3DB
S1130A1030E0F90120812068FC01208371C18A81C2
S1130A20813051F484E390E024E330E0F901208143
S1130A302E7FFC01208364C184E390E024E330E052
S1130A40F90120812160FC0120835AC18A8181300F
S1130A5051F484E390E024E330E0F90120812D7F18
S1130A60FC0120834DC184E390E024E330E0F901EC
S1130A7020812260FC01208343C18A81813051F4AA
S1130A8084E390E024E330E0F90120812B7FFC0132
S1130A90208336C184E390E024E330E0F90120812F
S1130AA02460FC0120832CC18A81813051F484E3C9
S1130AB090E024E330E0F9012081277FFC012083CA
S1130AC01FC184E390E024E330E0F9012081286031
S1130AD0FC01208315C18A81813051F484E390E0C4
S1130AE024E330E0F90120812F7EFC01208308C13A
S1130AF084E390E024E330E0F90120812061FC01EB
S1130B002083FEC08A81813051F484E390E024E3A1
S1130B1030E0F90120812F7DFC012083F1C084E3C2
S1130B2090E024E330E0F90120812062FC0120837D
S1130B30E7C08A81813051F484E390E024E330E01B
S1130B40F90120812F7BFC012083DAC084E390E04B
S1130B5024E330E0F90120812064FC012083D0C02B
S1130B608A81813051F484E390E024E330E0F90198
S1130B7020812F77FC012083C3C084E390E024E329
S1130B8030E0F90120812068FC012083B9C08A810A
S1130B90813051F481E390E021E330E0F9012081D8
S1130BA02E7FFC012083ACC081E390E021E330E0A0
S1130BB0F90120812160FC012083A2C08A81813057
S1130BC051F481E390E021E330E0F90120812D7FAD
S1130BD0FC01208395C081E390E021E330E0F9013A
S1130BE020812260FC0120838BC08A81813051F4F2
S1130BF081E390E021E330E0F90120812B7FFC01C7
S1130C0020837EC081E390E021E330E0F90120817C
S1130C102460FC01208374C08A81813051F481E313
S1130C2090E021E330E0F9012081277FFC0120835B
S1130C3067C081E390E021E330E0F901208128607E
S1130C40FC0120835DC08A81813051F481E390E00E
S1130C5021E330E0F90120812F7EFC01208350C084
S1130C6081E390E021E330E0F90120812061FC017F
S1130C70208346C08A81813051F481E390E021E3EE
S1130C8030E0F90120812F7DFC01208339C081E30C
S1130C9090E021E330E0F90120812062FC0120830F
S1130CA02FC08A81813051F481E390E021E330E068
S1130CB0F90120812F7BFC01208322C081E390E095
S1130CC021E330E0F90120812064FC01208318C075
S1130CD08A81813051F481E390E021E330E0F9012D
S1130CE020812F77FC0120830BC081E390E021E376
S1130CF030E0F90120812068FC01208301C000005C
S1130D0000000F900F90DF91CF910895CF93DF9360
S1130D10CDB7DEB70E94C90661E08EE10E9482036E
S1130D2061E08FE10E9482030E949F0660E08EE1F1
S1130D300E947E0061E08FE10E947E00FFCFCF938E
S1130D40DF93CDB7DEB761E08DE10E94820361E0FD
S1130D508CE10E94820387E490E02AEDFC01208369
S1130D6086E490E02AEDFC0120838BE490E020915E
S1130D70600030916100FC0120838AE490E02091BE
S1130D80620030916300FC0120830000DF91CF9169
S1130D900895CF93DF93CDB7DEB78FE490E02FE4CF
S1130DA030E0F90120812E7FFC0120838FE490E064
S1130DB02FE430E0F90120812260FC0120838EE4DD
S1130DC090E02EE430E0F90120812860FC012083CA
S1130DD08EE490E02EE430E0F90120812061FC01F2
S1130DE020838FE490E02FE430E0F9012081206833
S1130DF0FC0120838FE490E02FE430E0F9012081AE
S1130E002064FC0120838FE490E02FE430E0F901BA
S1130E1020812062FC0120838FE490E02FE430E005
S1130E20F90120812061FC0120838DE490E0FC0124
S1130E3010828CE490E0FC0110828EE490E02EE4B9
S1130E4030E0F90120812160FC0120838EE490E0F0
S1130E502EE430E0F90120812D7FFC0120838EE413
S1130E6090E02EE430E0F90120812B7FFC01208307
S1130E708FE590E02FE530E0F90120812F77FC0128
S1130E8020830000DF91CF910895EE0FFF1F05909E
S10D0E90F491E02D0994F894FFCFCB
S9030000FC
