S019000054696D65725F315F50574D5F4D6F746F722E73726563B7
S11300000C946A000C947C000C947C000C947C008E
S11300100C947C000C947C000C947C000C947C006C
S11300200C947C000C947C000C947C000C947C005C
S11300300C947C000C947C000C947C000C947C004C
S11300400C947C000C947C000C947C000C947C003C
S11300500C947C009B00B200C900E000F7000E0184
S113006025013C0153016A0181019801AF01C601D8
S1130070DD01F4010B0222023902500267027E0202
S11300809502AC02C302DA02F10208031F0336032D
S11300904D0364039F03B603CD03E403FB0312047F
S11300A02904400457046E0485049C04B304CA0460
S11300B0E104F8040F0526053D0554056B0582058A
S11300C09905B005C705DE05F5050C0623063A06B5
S11300D05106680611241FBECFE5D8E0DEBFCDBFB0
S11300E020E0A0E6B0E001C01D92A636B207E1F719
S11300F00E9486060C942D0B0C940000CF93DF9382
S113010000D0CDB7DEB789836A838981882F90E0D8
S1130110092E000CAA0BBB0B40E050E02FE130E0AD
S1130120841B950B2817390708F4E5C2865D9F4F99
S1130130FC010C94EB0A8A81882351F48BE390E050
S11301402BE330E0F90120812E7FFC012083D4C20F
S11301508BE390E02BE330E0F90120812160FC0186
S11301602083CAC28A81882351F48BE390E02BE375
S113017030E0F90120812D7FFC012083BDC28BE397
S113018090E02BE330E0F90120812260FC01208320
S1130190B3C28A81882351F48BE390E02BE330E0EF
S11301A0F90120812B7FFC012083A6C28BE390E020
S11301B02BE330E0F90120812460FC0120839CC200
S11301C08A81882351F48BE390E02BE330E0F9013A
S11301D02081277FFC0120838FC28BE390E02BE3F7
S11301E030E0F90120812860FC01208385C28A81E6
S11301F0882351F48BE390E02BE330E0F901208174
S11302002F7EFC01208378C28BE390E02BE330E067
S1130210F90120812061FC0120836EC28A81882338
S113022051F48BE390E02BE330E0F90120812F7D42
S1130230FC01208361C28BE390E02BE330E0F90101
S113024020812062FC01208357C28A81882351F4D3
S11302508BE390E02BE330E0F90120812F7BFC015C
S113026020834AC28BE390E02BE330E0F901208144
S11302702064FC01208340C28A81882351F48BE3EB
S113028090E02BE330E0F90120812F77FC012083FB
S113029033C28BE390E02BE330E0F9012081206846
S11302A0FC01208329C28A81882351F488E390E0E9
S11302B028E330E0F90120812E7FFC0120831CC259
S11302C088E390E028E330E0F90120812160FC011B
S11302D0208312C28A81882351F488E390E028E3C2
S11302E030E0F90120812D7FFC01208305C288E3E1
S11302F090E028E330E0F90120812260FC012083B2
S1130300FBC18A81882351F488E390E028E330E03C
S1130310F90120812B7FFC012083EEC188E390E06A
S113032028E330E0F90120812460FC012083E4C14A
S11303308A81882351F488E390E028E330E0F901CE
S11303402081277FFC012083D7C188E390E028E344
S113035030E0F90120812860FC012083CDC18A812D
S1130360882351F488E390E028E330E0F901208108
S11303702F7EFC012083C0C188E390E028E330E0B5
S1130380F90120812061FC012083B6C18A81882380
S113039051F488E390E028E330E0F90120812F7DD7
S11303A0FC012083A9C188E390E028E330E0F9014F
S11303B020812062FC0120839FC18A81882351F41B
S11303C088E390E028E330E0F90120812F7BFC01F1
S11303D0208392C188E390E028E330E0F901208192
S11303E02064FC01208388C18A81882351F488E336
S11303F090E028E330E0F90120812F77FC0120838D
S11304007BC188E390E028E330E0F9012081206893
S1130410FC01208371C18A81882351F485E390E033
S113042025E330E0F90120812E7FFC01208364C1A3
S113043085E390E025E330E0F90120812160FC01AF
S113044020835AC18A81882351F485E390E025E30F
S113045030E0F90120812D7FFC0120834DC185E32B
S113046090E025E330E0F90120812260FC01208343
S113047043C18A81882351F485E390E025E330E089
S1130480F90120812B7FFC01208336C185E390E0B4
S113049025E330E0F90120812460FC0120832CC194
S11304A08A81882351F485E390E025E330E0F90163
S11304B02081277FFC0120831FC185E390E025E391
S11304C030E0F90120812860FC01208315C18A8174
S11304D0882351F485E390E025E330E0F90120819D
S11304E02F7EFC01208308C185E390E025E330E002
S11304F0F90120812061FC012083FEC08A818823C8
S113050051F485E390E025E330E0F90120812F7D6B
S1130510FC012083F1C085E390E025E330E0F9019C
S113052020812062FC012083E7C08A81882351F462
S113053085E390E025E330E0F90120812F7BFC0185
S11305402083DAC085E390E025E330E0F9012081DF
S11305502064FC012083D0C08A81882351F485E380
S113056090E025E330E0F90120812F77FC0120831E
S1130570C3C085E390E025E330E0F90120812068E1
S1130580FC012083B9C08A81882351F482E390E07E
S113059022E330E0F90120812E7FFC012083ACC0EE
S11305A082E390E022E330E0F90120812160FC0144
S11305B02083A2C08A81882351F482E390E022E35D
S11305C030E0F90120812D7FFC01208395C082E376
S11305D090E022E330E0F90120812260FC012083D5
S11305E08BC08A81882351F482E390E022E330E0D7
S11305F0F90120812B7FFC0120837EC082E390E0FF
S113060022E330E0F90120812460FC01208374C0DE
S11306108A81882351F482E390E022E330E0F901F7
S11306202081277FFC01208367C082E390E022E3DE
S113063030E0F90120812860FC0120835DC08A81BB
S1130640882351F482E390E022E330E0F901208131
S11306502F7EFC01208350C082E390E022E330E04F
S1130660F90120812061FC01208346C08A8188230E
S113067051F482E390E022E330E0F90120812F7D00
S1130680FC01208339C082E390E022E330E0F901E9
S113069020812062FC0120832FC08A81882351F4A9
S11306A082E390E022E330E0F90120812F7BFC011A
S11306B0208322C082E390E022E330E0F90120812C
S11306C02064FC01208318C08A81882351F482E3CA
S11306D090E022E330E0F90120812F77FC012083B0
S11306E00BC082E390E022E330E0F901208120682E
S11306F0FC01208301C0000000000F900F90DF91E7
S1130700CF910895CF93DF9300D0CDB7DEB789831F
S11307106A838981882F90E0092E000CAA0BBB0BF9
S113072040E050E02FE130E0841B950B2817390797
S113073008F4E5C2865B9F4FFC010C94EB0A8A81A6
S1130740813051F48AE390E02AE330E0F90120811A
S11307502E7FFC012083D4C28AE390E02AE330E0B8
S1130760F90120812160FC012083CAC28A81813081
S113077051F48AE390E02AE330E0F90120812D7FEF
S1130780FC012083BDC28AE390E02AE330E0F90152
S113079020812260FC012083B3C28A81813051F41C
S11307A08AE390E02AE330E0F90120812B7FFC0109
S11307B02083A6C28AE390E02AE330E0F901208195
S11307C02460FC0120839CC28A81813051F48AE335
S11307D090E02AE330E0F9012081277FFC012083A7
S11307E08FC28AE390E02AE330E0F9012081286097
S11307F0FC01208385C28A81813051F48AE390E030
S11308002AE330E0F90120812F7EFC01208378C2A5
S11308108AE390E02AE330E0F90120812061FC01C1
S113082020836EC28A81813051F48AE390E02AE306
S113083030E0F90120812F7DFC01208361C28AE32D
S113084090E02AE330E0F90120812062FC0120835A
S113085057C28A81813051F48AE390E02AE330E080
S1130860F90120812F7BFC0120834AC28AE390E0B6
S11308702AE330E0F90120812064FC01208340C296
S11308808A81813051F48AE390E02AE330E0F9016F
S113089020812F77FC01208333C28AE390E02AE38E
S11308A030E0F90120812068FC01208329C28A817B
S11308B0813051F487E390E027E330E0F9012081AF
S11308C02E7FFC0120831CC287E390E027E330E005
S11308D0F90120812160FC01208312C28A818130C8
S11308E051F487E390E027E330E0F90120812D7F84
S11308F0FC01208305C287E390E027E330E0F9019F
S113090020812260FC012083FBC18A81813051F463
S113091087E390E027E330E0F90120812B7FFC019D
S11309202083EEC187E390E027E330E0F9012081E2
S11309302460FC012083E4C18A81813051F487E37F
S113094090E027E330E0F9012081277FFC01208338
S1130950D7C187E390E027E330E0F90120812860E4
S1130960FC012083CDC18A81813051F487E390E07A
S113097027E330E0F90120812F7EFC012083C0C1F0
S113098087E390E027E330E0F90120812061FC0156
S11309902083B6C18A81813051F487E390E027E354
S11309A030E0F90120812F7DFC012083A9C187E378
S11309B090E027E330E0F90120812062FC012083EC
S11309C09FC18A81813051F487E390E027E330E0CE
S11309D0F90120812F7BFC01208392C187E390E001
S11309E027E330E0F90120812064FC01208388C1E1
S11309F08A81813051F487E390E027E330E0F90104
S1130A0020812F77FC0120837BC187E390E027E3DB
S1130A1030E0F90120812068FC01208371C18A81C2
S1130A20813051F484E390E024E330E0F901208143
S1130A302E7FFC01208364C184E390E024E330E052
S1130A40F90120812160FC0120835AC18A8181300F
S1130A5051F484E390E024E330E0F90120812D7F18
S1130A60FC0120834DC184E390E024E330E0F901EC
S1130A7020812260FC01208343C18A81813051F4AA
S1130A8084E390E024E330E0F90120812B7FFC0132
S1130A90208336C184E390E024E330E0F90120812F
S1130AA02460FC0120832CC18A81813051F484E3C9
S1130AB090E024E330E0F9012081277FFC012083CA
S1130AC01FC184E390E024E330E0F9012081286031
S1130AD0FC01208315C18A81813051F484E390E0C4
S1130AE024E330E0F90120812F7EFC01208308C13A
S1130AF084E390E024E330E0F90120812061FC01EB
S1130B002083FEC08A81813051F484E390E024E3A1
S1130B1030E0F90120812F7DFC012083F1C084E3C2
S1130B2090E024E330E0F90120812062FC0120837D
S1130B30E7C08A81813051F484E390E024E330E01B
S1130B40F90120812F7BFC012083DAC084E390E04B
S1130B5024E330E0F90120812064FC012083D0C02B
S1130B608A81813051F484E390E024E330E0F90198
S1130B7020812F77FC012083C3C084E390E024E329
S1130B8030E0F90120812068FC012083B9C08A810A
S1130B90813051F481E390E021E330E0F9012081D8
S1130BA02E7FFC012083ACC081E390E021E330E0A0
S1130BB0F90120812160FC012083A2C08A81813057
S1130BC051F481E390E021E330E0F90120812D7FAD
S1130BD0FC01208395C081E390E021E330E0F9013A
S1130BE020812260FC0120838BC08A81813051F4F2
S1130BF081E390E021E330E0F90120812B7FFC01C7
S1130C0020837EC081E390E021E330E0F90120817C
S1130C102460FC01208374C08A81813051F481E313
S1130C2090E021E330E0F9012081277FFC0120835B
S1130C3067C081E390E021E330E0F901208128607E
S1130C40FC0120835DC08A81813051F481E390E00E
S1130C5021E330E0F90120812F7EFC01208350C084
S1130C6081E390E021E330E0F90120812061FC017F
S1130C70208346C08A81813051F481E390E021E3EE
S1130C8030E0F90120812F7DFC01208339C081E30C
S1130C9090E021E330E0F90120812062FC0120830F
S1130CA02FC08A81813051F481E390E021E330E068
S1130CB0F90120812F7BFC01208322C081E390E095
S1130CC021E330E0F90120812064FC01208318C075
S1130CD08A81813051F481E390E021E330E0F9012D
S1130CE020812F77FC0120830BC081E390E021E376
S1130CF030E0F90120812068FC01208301C000005C
S1130D0000000F900F90DF91CF910895CF93DF9360
S1130D10CDB7DEB7E8970FB6F894DEBF0FBECDBFF0
S1130D2080E00E94320961E08EE10E94820361E06A
S1130D308FE10E94820382E390E02FEFFC01208385
S1130D400E94790861E080E090E00E94A30880E0BE
S1130D5090E0AAEFB4E489839A83AB83BC8320E058
S1130D6030E04AE755E469817A818B819C810E9455
S1130D70370ADC01CB018FA798ABA9ABBAAB20E053
S1130D8030E040E85FE36FA578A989A99AA90E9499
S1130D90B10988232CF481E090E09CAB8BAB3FC07D
S1130DA020E03FEF4FE757E46FA578A989A99AA9F6
S1130DB00E94320A18164CF520E030E040E251E47B
S1130DC069817A818B819C810E94370ADC01CB0185
S1130DD0BC01CD010E94B609DC01CB019CAB8BABFD
S1130DE00FC080E991E09EAB8DAB8DA99EA90197C0
S1130DF0F1F79EAB8DAB8BA99CA901979CAB8BABF8
S1130E008BA99CA9892B69F714C06FA578A989A916
S1130E109AA90E94B609DC01CB019CAB8BAB8BA9D0
S1130E209CA998AF8FAB8FA998AD0197F1F798AFB4
S1130E308FAB0E94220980E090E0AAEFB4E48D8396
S1130E409E83AF83B88720E030E04AE755E46D81A4
S1130E507E818F8198850E94370ADC01CB018DA3A6
S1130E609EA3AFA3B8A720E030E040E85FE36DA104
S1130E707EA18FA198A50E94B10988232CF481E05A
S1130E8090E09AA789A73FC020E03FEF4FE757E4DF
S1130E906DA17EA18FA198A50E94320A18164CF567
S1130EA020E030E040E251E46D817E818F819885BD
S1130EB00E94370ADC01CB01BC01CD010E94B609B6
S1130EC0DC01CB019AA789A70FC080E991E09CA718
S1130ED08BA78BA59CA50197F1F79CA78BA789A548
S1130EE09AA501979AA789A789A59AA5892B69F735
S1130EF014C06DA17EA18FA198A50E94B609DC0142
S1130F00CB019AA789A789A59AA59EA78DA78DA588
S1130F109EA50197F1F79EA78DA760E08AE590E072
S1130F200E94A30880E090E0AAEFB4E489879A873E
S1130F30AB87BC8720E030E04AE755E469857A85D1
S1130F408B859C850E94370ADC01CB018B8F9C8F9B
S1130F50AD8FBE8F20E030E040E85FE36B8D7C8D89
S1130F608D8D9E8D0E94B10988232CF481E090E040
S1130F7098A38F8F3FC020E03FEF4FE757E46B8D7E
S1130F807C8D8D8D9E8D0E94320A18164CF520E0C2
S1130F9030E040E251E469857A858B859C850E9426
S1130FA0370ADC01CB01BC01CD010E94B609DC018A
S1130FB0CB0198A38F8F0FC080E991E09AA389A3F6
S1130FC089A19AA10197F1F79AA389A38F8D98A17A
S1130FD0019798A38F8F8F8D98A1892B69F714C0DF
S1130FE06B8D7C8D8D8D9E8D0E94B609DC01CB01AD
S1130FF098A38F8F8F8D98A19CA38BA38BA19CA169
S11310000197F1F79CA38BA30E94220980E090E052
S1131010AAEFB4E48D879E87AF87B88B20E030E0D9
S11310204AE755E46D857E858F8598890E94370A45
S1131030DC01CB01898B9A8BAB8BBC8B20E030E03D
S113104040E85FE369897A898B899C890E94B109A8
S113105088232CF481E090E09E8B8D8B3FC020E0B0
S11310603FEF4FE757E469897A898B899C890E940D
S1131070320A18164CF520E030E040E251E46D8568
S11310807E858F8598890E94370ADC01CB01BC01DB
S1131090CD010E94B609DC01CB019E8B8D8B0FC064
S11310A080E991E0988F8F8B8F89988D0197F1F764
S11310B0988F8F8B8D899E8901979E8B8D8B8D89BF
S11310C09E89892B69F714C069897A898B899C89DF
S11310D00E94B609DC01CB019E8B8D8B8D899E8984
S11310E09A8F898F898D9A8D0197F1F79A8F898FBD
S11310F029CECF93DF93CDB7DEB761E08DE10E94B7
S1131100820361E08CE10E94820387E490E02AED8F
S1131110FC01208386E490E020ECFC0120838BE436
S113112090E02091600030916100FC0120838AE40A
S113113090E02091620030916300FC012083000064
S1131140DF91CF910895CF93DF9300D01F92CDB755
S1131150DEB79A8389836B838B818130A9F589817A
S11311609A819C0140E050E080EC9AEDDC010E9401
S1131170F10ADC01CB0124E630E040E050E0BC01A0
S1131180CD010E94CC0ADA01C901909365008093D5
S113119064008BE490E02091640030916500232F7B
S11311A03327FC0120838AE490E02091640030918D
S11311B06500FC01208361E08EE10E947E0060E016
S11311C08FE10E947E0037C08B818823A1F589813D
S11311D09A819C0140E050E080EC9AEDDC010E9491
S11311E0F10ADC01CB0124E630E040E050E0BC0130
S11311F0CD010E94CC0ADA01C90190936500809365
S113120064008BE490E02091640030916500232F0A
S11312103327FC0120838AE490E02091640030911C
S11312206500FC01208360E08EE10E947E0061E0A5
S11312308FE10E947E0000000F900F900F90DF91CD
S1131240CF910895CF93DF93CDB7DEB760E08EE101
S11312500E947E0060E08FE10E947E000000DF912A
S1131260CF910895CF93DF931F92CDB7DEB78983D3
S11312708FE490E02FE430E0F90120812E7FFC011F
S113128020838FE490E02FE430E0F9012081226094
S1131290FC0120838EE490E02EE430E0F90120810B
S11312A02860FC0120838EE490E02EE430E0F90114
S11312B020812061FC0120838FE490E02FE430E062
S11312C0F90120812068FC0120838FE490E02FE461
S11312D030E0F90120812064FC0120838FE490E058
S11312E02FE430E0F90120812062FC0120838FE4A7
S11312F090E02FE430E0F90120812061FC0120839B
S11313008DE490E0FC0110828CE490E0FC011082FA
S11313108EE490E02EE430E0F90120812160FC01AC
S113132020838EE490E02EE430E0F90120812D7FCB
S1131330FC0120838EE490E02EE430E0F90120816A
S11313402B7FFC0120838FE590E02FE530E0F9014D
S113135020812F77FC01208300000F90DF91CF9133
S113136008950E94E50908F481E008950E94110A95
S113137088F09F5798F0B92F9927B751B0F0E1F052
S1131380660F771F881F991F1AF0BA95C9F714C002
S1131390B13091F00E942B0AB1E008950C942B0A0D
S11313A0672F782F8827B85F39F0B93FCCF386953B
S11313B077956795B395D9F73EF490958095709598
S11313C061957F4F8F4F9F4F0895990F0008550FD8
S11313D0AA0BE0E8FEEF16161706E807F907C0F0B7
S11313E012161306E407F50798F0621B730B840BBF
S11313F0950B39F40A2661F0232B242B252B21F499
S113140008950A2609F4A140A6958FEF811D811D38
S1131410089557FD9058440F551F59F05F3F71F0E0
S11314204795880F97FB991F61F09F3F79F0879547
S11314300895121613061406551FF2CF4695F1DFD0
S113144008C0161617061806991FF1CF8695710560
S1131450610508940895E894BB2766277727CB0194
S113146097F908950E94E50908F48FEF08950E9402
S11314704A0A0C94BB0A0E94AD0A38F00E94B40ACE
S113148020F0952311F00C94A40A0C94AA0A1124B8
S11314900C942C0A0E94090A70F3959FC1F3950FCE
S11314A050E0551F629FF001729FBB27F00DB11DE4
S11314B0639FAA27F00DB11DAA1F649F6627B00D74
S11314C0A11D661F829F2227B00DA11D621F739F5D
S11314D0B00DA11D621F839FA00D611D221F749F6B
S11314E03327A00D611D231F849F600D211D822FB2
S11314F0762F6A2F11249F5750409AF0F1F08823D9
S11315004AF0EE0FFF1FBB1F661F771F881F915005
S11315105040A9F79E3F510580F00C94A40A0C9406
S11315202C0A5F3FE4F3983ED4F38695779567954C
S1131530B795F795E7959F5FC1F7FE2B880F911D2F
S11315409695879597F9089597F99F6780E870E0D5
S113155060E008959FEF80EC089500240A94161625
S1131560170618060906089500240A94121613068D
S1131570140605060895092E0394000C11F488231B
S113158052F0BB0F40F4BF2B11F460FF04C06F5F37
S11315907F4F8F4F9F4F0895052E97FB1EF40094A5
S11315A00E94E30A57FD07D00E94FC0A07FC03D0FF
S11315B04EF40C94E30A50954095309521953F4F95
S11315C04F4F5F4F089590958095709561957F4F2B
S11315D08F4F9F4F0895EE0FFF1F0590F491E02D5C
S11315E009940E941E0BA59F900DB49F900DA49F7B
S11315F0800D911D11240895A1E21A2EAA1BBB1B74
S1131600FD010DC0AA1FBB1FEE1FFF1FA217B307CA
S1131610E407F50720F0A21BB30BE40BF50B661FE0
S1131620771F881F991F1A9469F7609570958095A4
S113163090959B01AC01BD01CF010895A29FB0011B
S1131640B39FC001A39F700D811D1124911DB29FF2
S1111650700D811D1124911D0895F894FFCF93
S9030000FC
