:100000000C942A000C943C000C943C000C943C0092
:100010000C943C000C943C000C943C000C943C0070
:100020000C943C000C943C000C9448000C943C0054
:100030000C943C000C943C000C943C000C943C0050
:100040000C943C000C943C000C943C000C943C0040
:100050000C943C0011241FBECFE5D8E0DEBFCDBF1D
:1000600020E0A0E6B0E001C01D92A436B207E1F79F
:100070000E943E000C94F6000C940000CF93DF9396
:10008000CDB7DEB70E94790081E00E94DB00FCCF93
:100090001F920F9200905F000F9211242F933F93B5
:1000A0004F935F936F937F938F939F93AF93BF9380
:1000B000EF93FF93CF93DF93CDB7DEB780916000CE
:1000C00090916100FC0109950000DF91CF91FF91B3
:1000D000EF91BF91AF919F918F917F916F915F91C0
:1000E0004F913F912F910F9000925F000F901F90C2
:1000F0001895CF93DF93CDB7DEB728970FB6F89456
:10010000DEBF0FBECDBF80E895E29C838B8381E08C
:100110008D8381E08E8388E08F8381E0888787E606
:1001200090E09A83898380E490E029813A81232FAB
:100130003327FC0120838AE290E02AE230E0F901D3
:1001400020812061FC0120838AE290E02AE230E0F5
:10015000F90120812860FC01208380E490E020E404
:1001600030E0F90120812068FC01208380E490E0E8
:1001700020E430E0F90120812860FC01208380E444
:1001800090E020E430E0F90120812260FC0120832E
:1001900080E490E020E430E0F90120812460FC015B
:1001A0002083000028960FB6F894DEBF0FBECDBFA7
:1001B000DF91CF910895CF93DF931F92CDB7DEB734
:1001C000898300008BE290E0FC018081882F90E021
:1001D00080729927892BB1F38CE290E02981FC0190
:1001E000208300000F90DF91CF910895F894FFCF06
:00000001FF
