S0130000554152545F4452495645522E73726563AA
S11300000C942A000C9434000C9434000C943400A6
S11300100C9434000C9434000C9434000C9434008C
S11300200C9434000C9434000C9434000C9434007C
S11300300C9434000C9434000C9434000C9434006C
S11300400C9434000C9434000C9434000C9434005C
S11300500C94340011241FBECFE5D8E0DEBFCDBF21
S11300600E9436000C944F000C9400000E943D0046
S11300700E944A000E944400FBCF10BC87E689B965
S11300808AB188618AB908959BB19072F1F39BB9E2
S11300908CB908958BB18823F4F78CB10895F89442
S10500A0FFCF8C
S9030000FC
