:100000000C942A000C943F000C943F000C943F0089
:100010000C943F000C943F000C943F000C943F0064
:100020000C943F000C943F000C943F000C943F0054
:100030000C943F000C943F000C943F000C943F0044
:100040000C943F000C943F000C943F000C943F0034
:100050000C943F0011241FBECFE5D8E0DEBFCDBF1A
:1000600010E0A0E6B0E0E4EDF3E002C005900D92F0
:10007000A636B107D9F70E9441000C94E8010C9410
:100080000000CF93DF931F92CDB7DEB70E945000E0
:1000900019820E94B401898389810E949601F9CF57
:1000A000CF93DF93CDB7DEB728970FB6F894DEBFB6
:1000B0000FBECDBF86E0E0E6F0E0DE0113960190D2
:1000C0000D928A95E1F78D81882F90E0813091051E
:1000D00069F0029709F00BC080E490E020E430E082
:1000E000F90120812860FC01208301C000008E817D
:1000F000882F90E08130910519F0029759F01DC0CA
:1001000080E490E020E430E0F90120812062FC01ED
:10011000208313C080E490E020E430E0F9012081E6
:100120002061FC01208380E490E020E430E0F901CC
:1001300020812062FC01208300008F81882F90E0C5
:100140008730910509F444C08830910534F4853036
:10015000910559F0069711F17BC08830910509F49B
:1001600051C0099709F458C073C080E490E020E4BE
:1001700030E0F9012081FC01208380E490E020E45C
:1001800030E0F9012081FC01208380E490E020E44C
:1001900030E0F9012081FC0120835AC080E490E026
:1001A00020E430E0F90120812260FC01208380E41A
:1001B00090E020E430E0F9012081FC01208380E41C
:1001C00090E020E430E0F9012081FC01208340C070
:1001D00080E490E020E430E0F9012081FC012083FC
:1001E00080E490E020E430E0F90120812460FC010B
:1001F000208380E490E020E430E0F9012081FC01DC
:10020000208326C080E490E020E430E0F9012081E2
:100210002668FC0120831CC080E490E020E430E0EC
:10022000F90120812260FC01208380E490E020E439
:1002300030E0F90120812460FC0120838AE290E013
:100240002AE230E0F90120812460FC0120830000D3
:100250008885882F90E08130910519F0029751F13F
:100260005BC08B819C819C0140E050E080E492E483
:10027000AFE0B0E0BC01CD010E94C601DA01C901C6
:1002800001979A83898380E490E029813A81232F22
:100290003327FC01208389E290E02981FC0120833F
:1002A0008AE290E02AE230E0F90120812861FC0135
:1002B000208332C08BE290E02BE230E0F901208114
:1002C0002260FC0120838B819C819C0140E050E0F6
:1002D00080E894E8AEE1B0E0BC01CD010E94C60127
:1002E000DA01C90101979A83898380E490E029812A
:1002F0003A81232F3327FC01208389E290E0298172
:10030000FC0120838AE290E02AE230E0F9012081BA
:100310002861FC0120830000000028960FB6F894A5
:10032000DEBF0FBECDBFDF91CF910895CF93DF9396
:100330001F92CDB7DEB7898300008BE290E02BE2FD
:1003400030E0F90120812072FC012083FC018081D2
:10035000882399F38CE290E02981FC01208300003E
:100360000F90DF91CF910895CF93DF93CDB7DEB794
:1003700000008BE290E0FC0180818823D4F78CE2BE
:1003800090E0FC018081DF91CF910895A1E21A2EC7
:10039000AA1BBB1BFD010DC0AA1FBB1FEE1FFF1F29
:1003A000A217B307E407F50720F0A21BB30BE40B79
:1003B000F50B661F771F881F991F1A9469F76095C0
:1003C0007095809590959B01AC01BD01CF0108957A
:0403D000F894FFCFCF
:0603D40080250100080174
:00000001FF
